:020000040800F2
:10000000B1AA010000000000000000000000000094
:1000100000000000000000000000000000000000E0
:1000200000000000000000000000000000000000D0
:1000300000000000000000000000000000000000C0
:1000400000000000000000000000000000000000B0
:1000500000000000000000000000000000000000A0
:100060000000000000000000000000000000000090
:100070000000000000000000000000000000000080
:100080000000000000000000000000000000000070
:100090000000000000000000000000000000000060
:1000A0000000000000000000000000000000000050
:1000B0000000000000000000000000000000000040
:1000C0000000000000000000000000000000000030
:1000D0000000000000000000000000000000000020
:1000E000643500080000000000000000000000006F
:1000F0000000000000000000000000000000000000
:1001000000000000000000000000000000000000EF
:1001100000000000000000000000000000000000DF
:1001200000000000000000000000000000000000CF
:1001300000000000000000000000000000000000BF
:1001400000000000000000000000000000000000AF
:100150000000000000000000000000007370043088
:10016000170500001305C5FF8545F605637BB5003F
:1001700089816378B500170500001305C5002E9529
:1001800002859302002073A0027D970200009382F3
:1001900062E773907230973200009382627A7390B4
:1001A000C27E73E0C07E973200009382A27173908A
:1001B0005230971100189381618317810018130141
:1001C00061E4179500001305E5E097050018938595
:1001D00065E31386818563FAC5008322050023A0A9
:1001E000550011059105E3EAC5FE138581859385C8
:1001F00001266377B500232005001105E36DB5FEE8
:1002000073F0023217550000130505D5EF40105169
:10021000EF40F05701458145EF4040036F40D0501B
:1002200001A073E00232828073F00232828000000B
:100240000000000000000000010203040607080986
:10025000627574746F6E000073686F770000000041
:10026000256400000A000000627574746F6E2073CC
:10027000686F770A0000000068656C70000000007D
:100280006D640000437572736F7220203A202564FC
:100290000A000000436F756E742020203A20256408
:1002A0000A0000006275665F6C656E203A20256466
:1002B0000A00000062756620202020203A20257365
:1002C0000A0000006C696E655F6920203A20256491
:1002D0000A0000006C696E655F6C74203A2025642A
:1002E0000A0000006C696E655F6320203A20256477
:1002F0000A0000006275662025642020203A20252F
:10030000730A00000A0000000A0D0000636C6923F4
:10031000200000001B5B3150000000000820081B7B
:100320005B3150001B5B346825631B5B346C000041
:100330001B5B2564440000001B5B25644300000038
:100340001B5B2564500000000D0A00002D2D2D2D93
:100350002D2D2D2D2D2D20636D64206C697374203F
:100360002D2D2D2D2D2D2D2D2D0D0A002D2D2D2D2D
:100370002D2D2D2D2D2D2D2D2D2D2D2D2D2D2D2DAD
:100380002D2D2D2D2D2D2D2D2D0D0A003E3E206DB8
:10039000642061646472205B73697A655D200A0081
:1003A0000A20202000000000203078253038583AFC
:1003B00020000000203078253038580020207C00B4
:1003C000256300002E0000007C0A20202000000091
:1003D000200C0A0D090B0000000C01402000000059
:1003E00000010000000C01400100000000010000BD
:1003F000000C014002000000000100005B20466983
:10040000726D7761726520426567696E2E2E2E20AF
:100410005D0D0A004744564631303356425436008B
:10042000426F6F74696E672E2E4E616D65200909EB
:100430003A2025730D0A00005632313038333152DC
:1004400031000000426F6F74696E672E2E56657220
:10045000202009093A2025730D0A0A000A0000002D
:100460000A50726F6772616D2068617320657869E8
:10047000746564207769746820636F64653A00006E
:10048000307800006E6D690A0000000074726170BF
:100490000A00000000000000000000000040AF4023
:1004A000707265737320636E74203A2025640A00AD
:1004B00036420000EA42000040420000EA420000EA
:1004C000DC420000EA4200004042000036420000E8
:1004D00036420000DC420000404200001C420000A6
:1004E0001C4200001C42000044420000E4460000A0
:1004F000E4460000FC460000DE460000DE46000048
:100500008A470000FC460000DE4600008A470000E3
:10051000DE460000FC460000DC460000DC46000031
:10052000DC4600008A4700000001020203030303C7
:100530000404040404040404050505050505050573
:100540000505050505050505060606060606060653
:10055000060606060606060606060606060606063B
:100560000606060606060606070707070707070723
:10057000070707070707070707070707070707070B
:1005800007070707070707070707070707070707FB
:1005900007070707070707070707070707070707EB
:1005A00007070707070707070808080808080808D3
:1005B00008080808080808080808080808080808BB
:1005C00008080808080808080808080808080808AB
:1005D000080808080808080808080808080808089B
:1005E000080808080808080808080808080808088B
:1005F000080808080808080808080808080808087B
:10060000080808080808080808080808080808086A
:10061000080808080808080808080808080808085A
:1006200008080808080808086E660000696E697402
:1006300079000000616E00008A4D0000764D0000D8
:10064000A24D0000A84D00008A4D000035000000BA
:10065000CEFBFFFFCB030000010000000000000004
:1006600034000000CEFBFFFFCB03000001000000C0
:100670000000000000000000BC89D897B2D29C3C6A
:1006800033A7A8D523F649393DA7F444FD0FA53279
:100690009D978CCF08BA5B25436FAC642806681120
:1006A00043000000504F5349580000002E00000046
:1006B0000080E03779C34143176E05B5B5B893465E
:1006C000F5F93FE9034F384D321D30F94877825A2A
:1006D0003CBF737FDD4F1575000000000000F03F48
:1006E000000000000000244000000000000059400D
:1006F0000000000000408F40000000000088C34060
:1007000000000000006AF8400000000080842E41D4
:1007100000000000D01263410000000084D7974120
:100720000000000065CDCD41000000205FA0024226
:10073000000000E876483742000000A2941A6D429B
:10074000000040E59C30A2420000901EC4BCD6428E
:1007500000003426F56B0C430080E03779C3414339
:1007600000A0D8855734764300C84E676DC1AB43AF
:10077000003D9160E458E143408CB5781DAF1544CD
:1007800050EFE2D6E41A4B4492D54D06CFF08044A8
:10079000F64AE1C7022DB544B49DD9794378EA44BD
:1007A00005000000190000007D000000232D302B03
:1007B00020000000686C4C006566674546470000F5
:1007C0003031323334353637383941424344454687
:1007D0000000000030313233343536373839616249
:1007E00063646566000000004A73000060730000E7
:1007F00020730000207300002073000020730000AD
:10080000607300002073000020730000207300005C
:1008100020730000BA7400009E7300008C74000006
:100820002073000020730000EA74000020730000B1
:100830009E73000020730000207300009474000079
:1008400000202020202020202020282828282820A0
:100850002020202020202020202020202020202098
:100860002088101010101010101010101010101000
:1008700010040404040404040404041010101010F0
:1008800010104141414141410101010101010101BA
:10089000010101010101010101010101101010100C
:1008A000101042424242424202020202020202028C
:1008B00002020202020202020202020210101010E0
:1008C0002000000000000000000000000000000008
:1008D0000000000000000000000000000000000018
:1008E0000000000000000000000000000000000008
:1008F00000000000000000000000000000000000F8
:1009000000000000000000000000000000000000E7
:1009100000000000000000000000000000000000D7
:1009200000000000000000000000000000000000C7
:1009300000000000000000000000000000000000B7
:100940000000011122CE0010F36704302326F4FECC
:100950000100724405618280011106CE22CC001094
:10096000AA87A307F4FE8347F4FE3E85EF300045D7
:100970000100F240624405618280011106CE22CC62
:1009800000102326A4FEAE873287A305F4FEBA87A3
:100990002305F4FE0325C4FEEF3040368347B4FE42
:1009A000BE850325C4FEEF3000498347A4FEBE8503
:1009B0000325C4FEEF30E0500100F24062440561BF
:1009C0008280797122D60018232EA4FC232CB4FC3B
:1009D000232AC4FC2328D4FC232404FE232204FE5F
:1009E000832784FDBD8B2324F4FE832784FDC18BE4
:1009F00081CB032784FE832744FDD98F2324F4FE73
:100A0000231704FE4DA88357E4FE05473317F7006C
:100A1000832704FDF98FD9CB8327C4FD9C43232270
:100A2000F4FE8357E4FE8A073D47B317F70093C7E8
:100A3000F7FF032744FEF98F2322F4FE8357E4FED9
:100A40008A07032784FEB317F700032744FED98FD4
:100A50002322F4FE032784FD930780026310F7022C
:100A60008357E4FE05473317F7008327C4FDD107FA
:100A7000BE86832704FDF98F9CC225A0032784FD31
:100A800093078004631FF7008357E4FE054733177D
:100A9000F7008327C4FDC107BE86832704FDF98FB5
:100AA0009CC28327C4FD032744FE98C38357E4FEFA
:100AB00085072317F4FE0357E4FE9D47E3F5E7F4AB
:100AC000A1472317F4FE75A88357E4FE05473317A3
:100AD000F700832704FDF98FC5C38327C4FD910761
:100AE0009C432322F4FE8357E4FEE1178A073D4727
:100AF000B317F70093C7F7FF032744FEF98F2322AC
:100B0000F4FE8357E4FEE1178A07032784FEB31738
:100B1000F700032744FED98F2322F4FE032784FD28
:100B2000930780026310F7028357E4FE05473317EB
:100B3000F7008327C4FDD107BE86832704FDF98F04
:100B40009CC225A0032784FD93078004631FF70040
:100B50008357E4FE05473317F7008327C4FDC10719
:100B6000BE86832704FDF98F9CC28327C4FD9107AD
:100B70003E87832744FE1CC38357E4FE8507231763
:100B8000F4FE0357E4FEBD47E3F0E7F40100010083
:100B9000325445618280011122CE00102326A4FE2A
:100BA0002324B4FE8327C4FEC1073E87832784FE27
:100BB0001CC30100724405618280011122CE001025
:100BC0002326A4FE2324B4FE8327C4FED1073E8738
:100BD000832784FE1CC301007244056182800111D9
:100BE00022CE00102326A4FE2324B4FE8327C4FEB5
:100BF000A1079843832784FEF98F99C3854711A0E5
:100C000081473E85724405618280011122CE001029
:100C10002326A4FE8327C4FE13D76700B71702401C
:100C2000BA9798438327C4FEFD8B8546B397F60099
:100C30008326C4FE13D66600B7160240B296D98F3B
:100C40009CC20100724405618280011122CE001015
:100C50002326A4FE8327C4FE13D76700B7170240DC
:100C6000BA9798438327C4FEFD8B8546B397F60059
:100C70008326C4FE13D66600B7160240B296D98FFB
:100C80009CC20100724405618280011122CE0010D5
:100C90002326A4FE8327C4FE13D76700B71702409C
:100CA000BA9798438327C4FEFD8B8546B397F60019
:100CB00093C7F7FF8326C4FE13D66600B71602401B
:100CC000B296F98F9CC2010072440561828019714D
:100CD000A2DE00012326A4F8232604FEB70700089D
:100CE000938707249043D4439847DC472322C4FAD0
:100CF0002324D4FA2326E4FA2328F4FA232E04F832
:100D0000B7070304938717202320F4FA232A04F853
:100D1000B707030493871720232CF4F8B717024072
:100D200091079C4389838D8B232CF4FC032784FD3E
:100D30008947630EF702032784FD894763EBE716B3
:100D4000832784FD99C7032784FD8547630AF7003D
:100D50008DA2B7177A00938707202324F4FE95A26B
:100D6000B7177A00938707202324F4FE99AAB717B0
:100D7000024091079843C167F98F232AF4FC0327A7
:100D800044FDC1676310F70AB7177A0093870720FD
:100D90002320F4FEB71702409387C7029843C16728
:100DA000F98F2328F4FC032704FDC167631AF704B5
:100DB000B71702409387C7029C439183BD8B850779
:100DC0002326F4FCB71702409387C7029C43A183F4
:100DD000BD8B8907232EF4FC0327C4FDC54763158B
:100DE000F700D147232EF4FC032704FE8327C4FC1D
:100DF000B357F7020327C4FDB307F7022320F4FE1D
:100E0000B71702409387C7029C43BD8B85072324F5
:100E1000F4FC032704FE832784FCB357F702232046
:100E2000F4FE39A0B7173D00938707902320F4FE06
:100E3000B717024091079C43C983BD8B2322F4FE60
:100E4000B717024091079843B7070020F98F99C759
:100E5000832744FE93E707012322F4FE032744FE81
:100E6000B94763E8E700832744FE89072322F4FE9D
:100E700031A0832744FE85072322F4FE032704FEC6
:100E8000832744FEB307F7022324F4FE032744FE1E
:100E9000BD476317F702032704FEBA878607BA9790
:100EA00086073E87832704FE8583BA972324F4FEB2
:100EB00001A8B7177A00938707202324F4FE11A016
:100EC0000100B717024091079C439183BD8B2322F9
:100ED000F4FC832744FC130704FFBA9783C747FB3E
:100EE0002320F4FC832704FC032784FEB357F70078
:100EF000232EF4FAB717024091079C43A1839D8BE0
:100F00002322F4FC832744FC130704FFBA9783C70A
:100F1000C7FA2320F4FC832704FC0327C4FBB35740
:100F2000F700232CF4FAB717024091079C43AD83D6
:100F30009D8B2322F4FC832744FC130704FFBA97FC
:100F400083C747FA2320F4FC832704FC0327C4FB50
:100F5000B357F700232AF4FA0327C4F88D4763092F
:100F6000F7040327C4F88D4763E9E7040327C4F8AF
:100F70008947630AF7020327C4F8894763EFE7024A
:100F80008327C4F899C70327C4F885476308F70087
:100F90002DA0832784FE2326F4FE0DA08327C4FB07
:100FA0002326F4FE21A8832784FB2326F4FE39A000
:100FB000832744FB2326F4FE11A001008327C4FEEF
:100FC0003E85765409618280011106CE22CC001044
:100FD0002326A4FE0327C4FEB7470140938707805A
:100FE0006307F7060327C4FEB747014093870780CE
:100FF00063E2E70A0327C4FEB75700406305F7081A
:101000000327C4FEB757004063E6E7080327C4FE82
:10101000B7570040938707C06300F7060327C4FE55
:10102000B7570040938707C063E6E7060327C4FE6F
:10103000B7470040938707406302F7020327C4FEC7
:10104000B7570040938707806301F702A1A01305FB
:10105000E030E53E1305E0300D3935A813051041A9
:10106000ED361305104115313DA013052041F13E29
:1010700013052041193905A013053041F936130530
:101080003041213109A813054041C13613054041C3
:10109000ED3E11A001000100F24062440561828032
:1010A000797106D622D40018232EA4FC232CB4FC7C
:1010B000232604FE232404FE232204FE232004FE10
:1010C0000327C4FDB7470140938707806307F706EE
:1010D0000327C4FDB74701409387078063E8E7080B
:1010E0000327C4FDB7570040630DF7060327C4FD6F
:1010F000B757004063ECE7060327C4FDB75700402D
:10110000938707C0630AF7040327C4FDB75700405D
:10111000938707C063ECE7040327C4FDB74700408B
:10112000938707406300F7020327C4FDB7570040C9
:1011300093870780630DF70015A80D45493E2326C8
:10114000A4FE35A0094561362326A4FE0DA009455D
:10115000BD3E2326A4FE21A80945953E2326A4FED4
:1011600039A00945AD362326A4FE11A0010083272E
:1011700084FD13D717008327C4FE3E97832784FD81
:10118000B357F7022320F4FE032704FEC167C117FB
:10119000F98F2324F4FE832704FEBD8B2322F4FE63
:1011A000032784FE832744FE5D8F8327C4FDA107A8
:1011B000BE86C167FD17F98F9CC20100B250225450
:1011C00045618280011122CE00102326A4FE232433
:1011D000B4FE8327C4FEB1079C430327C4FE310736
:1011E00093F7F79F1CC38327C4FEB1079843832757
:1011F000C4FEB107BE86832784FED98F9CC201003E
:10120000724405618280011122CE00102326A4FEC3
:101210002324B4FE8327C4FEB10798438327C4FE6A
:10122000B107BE86FD77FD17F98F9CC28327C4FEE8
:10123000B10798438327C4FEB107BE86832784FE87
:10124000D98F9CC20100724405618280011122CEB7
:1012500000102326A4FE2324B4FE8327C4FEC10766
:1012600098438327C4FEC107BE86F577FD17F98F23
:101270009CC28327C4FEC10798438327C4FEC107CD
:10128000BE86832784FED98F9CC20100724405610B
:101290008280011122CE00102326A4FE8327C4FEE3
:1012A000B10798438327C4FEB107BE868967D98FEB
:1012B0009CC20100724405618280797122D60018B7
:1012C000232EA4FC232CB4FC232604FE8327C4FD78
:1012D000B1079C432326F4FE8327C4FEDD9B23260F
:1012E000F4FE0327C4FE832784FDD98F2326F4FE52
:1012F0008327C4FDB1073E878327C4FE1CC30100BA
:10130000325445618280797122D60018232EA4FCC4
:10131000232CB4FC232604FE8327C4FDB1079C4381
:101320002326F4FE8327C4FEED9B2326F4FE032729
:10133000C4FE832784FDD98F2326F4FE8327C4FDB2
:10134000B1073E878327C4FE1CC3010032544561A8
:101350008280011122CE00102326A4FE2324B4FE95
:101360008327C4FE91073E87832784FE93F7F71FE8
:101370001CC30100724405618280011122CE00105D
:101380002326A4FE8327C4FE91079C43C207C18382
:1013900093F7F71FC207C1833E85724405618280BF
:1013A000797122D60018232EA4FC232CB4FC23260A
:1013B00004FE8327C4FDD1079C432326F4FE832724
:1013C000C4FE93F7F7EF2326F4FE0327C4FE83271A
:1013D00084FDD98F2326F4FE8327C4FDD1073E87E1
:1013E0008327C4FE1CC30100325445618280797199
:1013F00022D60018232EA4FC232CB4FC232604FEA2
:101400008327C4FDD1079C432326F4FE8327C4FE13
:1014100093F7F7DF2326F4FE0327C4FE832784FD1A
:10142000D98F2326F4FE8327C4FDD1073E87832767
:10143000C4FE1CC30100325445618280011122CEDA
:1014400000102326A4FE2324B4FE832784FE998360
:1014500013F7F73F8327C4FEBA979843832784FE88
:10146000FD8BB357F700858B99C3854711A0814742
:101470003E85724405618280011122CE0010232630
:10148000A4FE2324B4FE832784FE998313F7F73F39
:101490008327C4FEBA979843832784FEFD8B854635
:1014A000B397F60093C7F7FF832684FE998213F65D
:1014B000F63F8326C4FEB296F98F9CC201007244A7
:1014C00005618280011122CE00102326A4FE232470
:1014D000B4FE832784FE998313F7F73F8327C4FE66
:1014E000BA979843832784FEFD8B8546B397F60011
:1014F000832684FE998213F6F63F8326C4FEB296B5
:10150000D98F9CC20100724405618280797122D614
:101510000018232EA4FC232CB4FC232604FE232431
:1015200004FE832784FD998313F7F73F8327C4FDC7
:10153000BA979843832784FDFD8B8546B397F600C1
:10154000F98F2326F4FE832784FD13D767018327B1
:10155000C4FDBA979843832784FDC183FD8B8546DC
:10156000B397F600F98F2324F4FE832784FE91C7F6
:101570008327C4FE99C3854711A081473E85325415
:1015800045618280411106C622C400085528010029
:10159000B240224441018280411106C622C40008A3
:1015A000B71702409843B71702401367170098C354
:1015B000B717024091079443B717024091073707C6
:1015C000FFE03107758F98C3B71702409443B717F0
:1015D00002403707F7FE7D17758F98C3B717024093
:1015E0009443B71702403707FCFF7D17758F98C3E8
:1015F000B717024091079443B71702409107370786
:1016000001DF7D17758F98C3B71702409387C70214
:1016100023A00700B71702409443B71702403707CB
:10162000F7EA7D17758F98C3B7170240A1073707F0
:10163000FF0098C3813F0100B240224441018280F3
:10164000011122CE0010232604FE232404FEB71726
:1016500002409443B71702404167558F98C38327D0
:10166000C4FE85072326F4FEB71702409843B70748
:101670000200F98F2324F4FE832784FE99E70327D1
:10168000C4FEC167FD17E31CF7FCB717024098437F
:10169000B7070200F98F91E301A0B7170240138743
:1016A0004700B71702409107184398C3B717024085
:1016B00013874700B71702409107184398C3B7171D
:1016C000024091079843B7170240910713670740FC
:1016D00098C3B717024091079443B7170240910788
:1016E0003707C4DF7D17758F98C3B717024091077E
:1016F0009443B7170240910737072920558F98C3A5
:10170000B71702409387C7029443B71702409387E5
:10171000C7023D77758F98C3B71702409387C702FA
:101720009443B71702409387C7024167130717F125
:10173000558F98C3B71702409443B7170240370735
:101740000004558F98C30100B71702409843B707AC
:101750000008F98FF5DBB71702409443B717024032
:1017600037070010558F98C30100B7170240984300
:10177000B7070020F98FF5DBB71702409443B7177E
:10178000024037070001558F98C30100B717024088
:101790009843B7070002F98FF5DBB71702409107AE
:1017A0009843B71702409107719B98C3B71702403F
:1017B00091079843B717024091071367270098C312
:1017C0000100B717024091079C43A18BFDDB01008C
:1017D0000100724405618280011106CE22CC001006
:1017E0008547A305F4FE13052060EFF00FC2130533
:1017F0004060EFF08FC1232604FE99A0B7070020B8
:10180000938607000327C4FEBA878607BA978A071C
:10181000B6978843B7070020938607000327C4FEC6
:10182000BA878607BA978A07B697DC43BE860D4605
:101830009145EFF00F998327C4FE85072326F4FE18
:101840000327C4FE8547E3DBE7FAB7270008938543
:1018500067A5B707000813850725EF10C039834730
:10186000B4FE3E85F240624405618280797106D6FD
:1018700022D40018AA87A30FF4FCA30704FE034791
:10188000F4FD854763F4E7008147A5A00347F4FD15
:10189000B707002093860700BA878607BA978A079A
:1018A000B69790430347F4FDB707002093860700DF
:1018B000BA878607BA978A07B697DC43BE85328512
:1018C000EFF0EFB12324A4FE0347F4FDB707002097
:1018D00093860700BA878607BA978A07B6979C4708
:1018E000032784FE6315F7008547A307F4FE8347AB
:1018F000F4FE3E85B250225445618280011106CE2D
:1019000022CC00102326A4FEAE872322C4FEA3050A
:10191000F4FE8327C4FE0347B4FE2380E700832739
:10192000C4FEA3800700EF20407F2A878327C4FEE0
:1019300098C78327C4FE032744FED8C30100F240A2
:10194000624405618280797106D622D40018232E64
:10195000A4FC232CB4FCA30704FE8327C4FD83C787
:10196000170009476386E7080947634FF70C89C7E3
:1019700005476387E702C9A88327C4FD83C707001B
:101980003E85ED35AA87C5CF8327C4FD0547A380D3
:10199000E700EF2080782A878327C4FD98C745A0F9
:1019A0008327C4FD83C707003E85C935AA8785CF35
:1019B000EF20A0762A878327C4FD9C47B307F74012
:1019C000032784FD63EFE7068547A307F4FE83271B
:1019D000C4FD0947A380E700EF2020742A878327EE
:1019E000C4FD98C7B9A88327C4FDA380070091A8A8
:1019F0008327C4FD83C707003E858D3DAA879DCB05
:101A00008327C4FDDC43A1C3EF2020712A878327ED
:101A1000C4FD9C471D8F8327C4FDDC436365F7022B
:101A20008547A307F4FEEF20406F2A878327C4FD74
:101A300098C711A88327C4FDA380070029A001002F
:101A400021A0010011A001008347F4FE3E85B250A1
:101A5000225445618280797106D622D40018232E43
:101A6000A4FCA30704FE8327C4FD03D70700854712
:101A7000631AF7068327C4FDD84BB7070008938580
:101A8000872501450297AA87B1CFB1A0232404FE80
:101A900025A0832784FE93F7F70F3E85C13BAA87D5
:101AA000BE85B707000813850726EF0070668327F9
:101AB00084FE85072324F4FE032784FE8547E3DAAA
:101AC000E7FCB707000813854726EF00706413058D
:101AD0004006EF20E055EF10A00EAA87C5FB854712
:101AE000A307F4FE8347F4FE93C7170093F7F70F9D
:101AF00099C7B707000813858726EF0070610100BA
:101B0000B250225445618280411106C622C40008A9
:101B1000B70700209387072523840700B707002015
:101B200093870725A3840700B7070020938707251D
:101B300023880700B707002093870725A38A071883
:101B4000B707002093870725238B0718B7070020C6
:101B500093870725A38B0718B707002093870725CE
:101B6000238A0718B707002093870725373700080F
:101B7000130767A223AAE742B70700209387072528
:101B8000373700081307E7A823ACE742B707002060
:101B90009387072537370008130787AF23AEE7423F
:101BA000B70700209387072537370008130707B5C5
:101BB00023A0E744B707002013850725EF0050173F
:101BC000B7370008938547CBB707000813858727E9
:101BD000EF106002B73700089385C7D3B707000836
:101BE00013850728EF10200185473E85B240224427
:101BF00041018280011106CE22CC0010AA87232445
:101C0000B4FEA307F4FEB707002093870725034718
:101C1000F4FE2380E700B7070020938707250327FA
:101C200084FED8C38347F4FE832584FE3E85EF10EF
:101C30008058AA873E87B70700209387072523840B
:101C4000E700B70700209387072583C787003E85F5
:101C5000F240624405618280797106D622D4001870
:101C6000232EA4FCB70700209387072583C797007E
:101C7000638807148327C4FD03C7A7008327C4FD17
:101C800083C7572E3E86B7070008938547283A85B5
:101C9000EF1070058327C4FD03C7A7008327C4FD89
:101CA00083C7672E3E86B7070008938547293A8584
:101CB000EF1070038327C4FD03C7A7008327C4FD6B
:101CC00083C7472E3E86B70700089385472A3A8583
:101CD000EF1070018327C4FD03C7A7008327C4FD4D
:101CE0009387472A3E86B70700089385472B3A8596
:101CF000EF10607F8327C4FD03C7A7008327C4FDBF
:101D0000838757193E86B70700089385472C3A8585
:101D1000EF10607D8327C4FD03C7A7008327C4FDA0
:101D200083C767193E86B70700089385472D3A8514
:101D3000EF10607B8327C4FD03C7A7008327C4FD82
:101D400083C777193E86B70700089385472E3A85E3
:101D5000EF106079232604FE81A08327C4FD03C50C
:101D6000A7000327C4FEBA879207BA978A07998FFC
:101D7000938707190327C4FDBA97A107BE860326D8
:101D8000C4FEB70700089385472FEF10C07583275F
:101D9000C4FE85072326F4FE8327C4FD83C7771975
:101DA0003E878327C4FEE3CAE7FA8327C4FD03C73F
:101DB000A700B7070008938547303A85EF10A07257
:101DC0000100B250225445618280011106CE22CC1E
:101DD00000102326A4FE8327C4FE03C70700B7070D
:101DE0000008938587303A85EF10E06F8327C4FEA3
:101DF00003C70700B70700089385C7303A85EF107F
:101E0000806E0100F240624405618280411106C685
:101E100022C40008B70700209387072583C78700DF
:101E200093C7170093F7F70F99C381472DA8B707FA
:101E300000209387072583C707003E85EF10C05118
:101E4000AA878DC3B70700209387072583C707009C
:101E50003E85EF10C054AA87BE85B70700201385C2
:101E60000725392085473E85B240224441018280C2
:101E70005D7186C6A2C48008232EA4FAAE87A30D86
:101E8000F4FAA30104FE8327C4FB9387472A232E79
:101E9000F4FC8327C4FB83C70701639E073E834787
:101EA000B4FB1307F0076384E7061307F007634BDF
:101EB000F7246D476387E7046D476345F72421479F
:101EC0006388E7103547639FE7228327C4FD83C7F4
:101ED000270481CB0325C4FB79250325C4FBEF0030
:101EE00090098327C4FD238107048327C4FDA380B1
:101EF00007048327C4FD238007000325C4FBF135B5
:101F000055A68327C4FB05472388E70061AE8327D6
:101F1000C4FD03C717048327C4FD83C72704637E5A
:101F2000F7368327C4FD03C727048327C4FD83C76F
:101F30001704B307F740A30DF4FC85472326F4FEEE
:101F400089A08327C4FD83C717043E878327C4FE67
:101F50003E978327C4FD83C71704BE868327C4FE2C
:101F6000B697FD178326C4FD3697034707008326DF
:101F7000C4FDB6972380E7008327C4FE8507232688
:101F8000F4FE8347B4FD0327C4FEE34CF7FA83272E
:101F9000C4FD83C72704FD1713F7F70F8327C4FD7C
:101FA0002381E7048327C4FD83C727043E87832753
:101FB000C4FDBA97238007008327C4FB03C707002B
:101FC000B7070008938547313A85EF10C051F1A457
:101FD0008327C4FD83C72704EDCB8327C4FD83C7B4
:101FE0001704E5C78327C4FD03C717048327C4FD6F
:101FF00083C727046317F7028327C4FD83C7270419
:10200000FD1713F7F70F8327C4FD2381E704832708
:10201000C4FD83C727043E878327C4FDBA97238066
:1020200007008327C4FD03C717048327C4FD83C7A4
:102030002704637CF7088327C4FD03C7270483278D
:10204000C4FD83C71704B307F740230DF4FC232412
:1020500004FE89A08327C4FD83C717043E87832716
:1020600084FE3E978327C4FD83C71704BE8683275B
:1020700084FEB697FD178326C4FD369703470700F5
:102080008326C4FDB6972380E700832784FE850757
:102090002324F4FE8347A4FD032784FEE34CF7FAD0
:1020A0008327C4FD83C72704FD1713F7F70F832782
:1020B000C4FD2381E7048327C4FD83C727043E872B
:1020C0008327C4FDBA97238007008327C4FD83C7F5
:1020D00017046386071C8327C4FD83C71704FD17F5
:1020E00013F7F70F8327C4FDA380E7048327C4FBFE
:1020F00003C70700B70700089385C7313A85EF107B
:10210000803E71AA8327C4FD83C727048507032760
:10211000C4FD0347070463D6E7188327C4FD03C73C
:1021200017048327C4FD83C727046319F706832791
:10213000C4FB83C707001307B4FB0546BA853E8579
:10214000EF10802A8327C4FD83C71704BE86034788
:10215000B4FB8327C4FDB6972380E7008327C4FD23
:1021600083C72704850713F7F70F8327C4FD23814F
:10217000E7048327C4FD83C71704850713F7F70F08
:102180008327C4FDA380E7048327C4FD83C72704F6
:102190003E878327C4FDBA97238007008327C4FDA9
:1021A00003C717048327C4FD83C72704637BF70E87
:1021B0008327C4FD03C727048327C4FD83C71704EF
:1021C000B307F740A30CF4FC232204FEA1A083274D
:1021D000C4FD83C727043E87832744FEB307F74027
:1021E0001387F7FF8327C4FD83C72704BE86832791
:1021F00044FEB387F6408326C4FD369703470700A5
:102200008326C4FDB6972380E700832744FE850715
:102210002322F4FE834794FD032744FEE349F7FAA3
:102220008327C4FD83C71704BE860347B4FB8327F7
:10223000C4FDB6972380E7008327C4FD83C7270426
:10224000850713F7F70F8327C4FD2381E70483274E
:10225000C4FD83C71704850713F7F70F8327C4FD51
:10226000A380E7048327C4FD83C727043E87832711
:10227000C4FDBA97238007008327C4FB03C7070068
:102280008347B4FB3E86B7070008938547323A85FB
:10229000EF10602539A0010031A0010021A001004C
:1022A00011A001008327C4FB83C707011147638086
:1022B000E72611476343F7260D476388E7020D477A
:1022C000634DF72405476386E70009476389E70004
:1022D000A9A48327C4FB09472388E7003DAC8327D3
:1022E000C4FB0D472388E7000DAC8327C4FB23887C
:1022F00007000347B4FB930740046318F7048327E0
:10230000C4FD83C71704B1C38327C4FD83C7170463
:10231000FD1713F7F70F8327C4FDA380E704ED47EC
:102320002306F4FC9307B005A306F4FC8347B4FB33
:102330002307F4FC8327C4FB83C707001307C4FCEF
:102340000D46BA853E85EF10200A0347B4FB93077C
:102350003004631DF7048327C4FD03C717048327D4
:10236000C4FD83C727046373F7048327C4FD83C7B1
:102370001704850713F7F70F8327C4FDA380E7042D
:10238000ED472306F4FC9307B005A306F4FC83474E
:10239000B4FB2307F4FC8327C4FB83C707001307A0
:1023A000C4FC0D46BA853E85EF1000040347B4FB1C
:1023B000930710046312F70285450325C4FBB12C73
:1023C0008327C4FB03C707008327C4FB9387472ADF
:1023D000BE853A85EF1020110347B4FB9307200414
:1023E0006312F70281450325C4FB052C8327C4FB38
:1023F00003C707008327C4FB9387472ABE853A8516
:10240000EF10600E0347B4FB93071003631BF70242
:102410008327C4FB03C707008327C4FD83C71704B2
:102420003E86B7070008938507333A85EF10A00B67
:102430008327C4FDA38007048327C4FB1147238897
:10244000E7000347B4FB930740036317F70C8327A8
:10245000C4FD03C717048327C4FD83C72704637122
:10246000F7048327C4FD83C727041397070141831B
:102470008327C4FD83C71704C207C183B307F7408E
:10248000231BF4FC8327C4FB03C70700835764FDA9
:102490003E86B7070008938587333A85EF10A0047E
:1024A0008327C4FD03C717048327C4FD83C72704FC
:1024B00063F1E7048327C4FD83C71704139707015B
:1024C00041838327C4FD83C72704C207C183B307A1
:1024D000F740231BF4FC8327C4FB03C70700835783
:1024E00064FD3E86B7070008938507333A85EF0001
:1024F000907F8327C4FD03C727048327C4FDA380DF
:10250000E7048327C4FB11472388E70031A0832712
:10251000C4FB2388070011A001000325C4FBEFF0D2
:10252000AFF3834734FE3E85B64026446161828026
:10253000011122CE00102326A4FE8327C4FE23838C
:10254000072E8327C4FEA382072E8327C4FE13070A
:10255000F0032382E72E8327C4FE2382072A01008B
:10256000724405618280011106CE22CC0010232620
:10257000A4FE8327C4FE83C767193E878326C4FE53
:10258000BA879207BA978A07998FB6970327C4FE2E
:10259000938787191307472A930630043686BA852E
:1025A0003E85EF20B0258327C4FE03C777198D47EA
:1025B00063EDE7008327C4FE83C77719850713F708
:1025C000F70F8327C4FEA38BE7188327C4FE83C7B6
:1025D00067191397870161878327C4FEA38AE718C9
:1025E0008327C4FE83C76719138717009357F741E2
:1025F000F9833E970D8BB307F74013F7F70F832747
:10260000C4FE238BE7188327C4FE0547238AE718F7
:102610000100F240624405618280797106D622D4BD
:102620000018232EA4FCAE87A30DF4FC8327C4FD61
:1026300083C77719638C07128327C4FD83C7572E7E
:102640008DC38327C4FD03C707008327C4FD83C749
:10265000572E3E86B7070008938507333A85EF006B
:1026600090688327C4FD83C7672E8DC38327C4FD6D
:1026700003C707008327C4FD83C7672E3E86B707BD
:102680000008938507343A85EF00F0650307B4FD31
:1026900085476311F7068327C4FD83C7471981CF98
:1026A0008327C4FD83C76719139787016187832731
:1026B000C4FDA38AE7188327C4FD838757193E8783
:1026C0008327C4FD83C77719BA97FD170327C4FD75
:1026D00003477719B3E7E7021397870161878327D9
:1026E000C4FDA38AE7188327C4FD83875719A3076E
:1026F000F4FE0DA88327C4FD838757198507032798
:10270000C4FD03477719B3E7E70213978701618791
:102710008327C4FDA38AE7188327C4FD838757193D
:10272000A307F4FE0347F4FE8326C4FD0326C4FD7D
:10273000BA879207BA978A07998FB2971387462A62
:1027400093878719930630043686BE853A85EF2035
:10275000F00A8327C4FD03C7672E8327C4FDA38225
:10276000E72E8327C4FD238A071811A00100B25069
:10277000225445618280797106D622D40018232E16
:10278000A4FCA30504FE0325C4FDD120AA87CDCB5C
:10279000B707000813858734A52A8327C4FD83A7BC
:1027A00047113E85F522232604FE51A08327C4FD50
:1027B00083A647110327C4FEBA878A07BA978A07F8
:1027C0009387072E0327C4FDBA97B107BE853685C8
:1027D000EF201010AA87B9E78327C4FD83D72711FC
:1027E000FD171397070141838327C4FD2396E74212
:1027F0008327C4FD138787118327C4FD23A8E742DD
:102800008326C4FD0327C4FEBA878A07BA978A07BE
:10281000B69703A7C72F8327C4FD9387C7423E857A
:10282000029739A88327C4FE85072326F4FE832751
:10283000C4FD83D7872E3E878327C4FEE3C8E7F60F
:102840008347B4FE3E85B25022544561828039717F
:1028500006DE22DC80002326A4FCA30704FE23134B
:1028600004FE8327C4FC239907108327C4FC9387A5
:10287000472A2320F4FE8327C4FC93874711232E85
:10288000F4FC835764FE8A070327C4FDBA9723A08C
:102890000700B707002083A7C71E130784FD3A86E9
:1028A000BE85032504FEEF3080782324A4FE1DA8F6
:1028B000835764FE138717002313E4FE8A07032758
:1028C000C4FDBA97032784FE98C3B707002083A7E7
:1028D000C71E130784FD3A86BE850145EF3020757B
:1028E0002324A4FE832784FEE1F78327C4FC035737
:1028F00064FE2399E710835764FE81C78547A307C9
:10290000F4FE8347F4FE3E85F250625421618280DA
:102910005D7106D622D40018232EA4FC4CC010C42E
:1029200054C418C85CC8232C0401232E1401930737
:102930000402232CF4FC832784FD91172322F4FE48
:10294000B7070020938707252326F4FE8327C4FEBC
:10295000C507032744FEBA860326C4FD930500106D
:102960003E85EF30D0092324A4FE8327C4FE03C78D
:1029700007008327C4FEC507832684FE3686BE85EE
:102980003A85EF0070260100B250225461618280C6
:10299000797122D60018232EA4FC231704FEA1A8C7
:1029A0008357E4FE0327C4FDBA9783870700A30675
:1029B000F4FE8347D4FEB1C70347D4FE9307000655
:1029C00063FDE7000347D4FE9307A00763E7E70032
:1029D0008347D4FE8117A306F4FE8357E4FE032742
:1029E000C4FDBA970307D4FE2380E7008357E4FEB3
:1029F00085072317F4FE0357E4FEBD47E3F2E7FA29
:102A000011A001000357E4FEC147631AF700835782
:102A1000E4FEFD170327C4FDBA97238007000100D9
:102A2000325445618280797106D622D40018AA8773
:102A3000A30FF4FC232604FEB70700209387072585
:102A40002324F4FE8347F4FD139707014183832772
:102A500084FE83D7C7426364F700814725A083279C
:102A600084FE03A707438347F4FD8A07BA979C4374
:102A7000014681453E85EF300070AA872326F4FE8B
:102A80008327C4FE3E85B25022544561828079710D
:102A900006D622D40018AA87A30FF4FC93070000DF
:102AA0002326F4FEB7070020938707252324F4FE8E
:102AB0008347F4FD139707014183832784FE83D75F
:102AC000C7426365F7009307000015A0832784FEC3
:102AD00003A707438347F4FD8A07BA979C438145C0
:102AE0003E85EF3060412326A4FE8327C4FE3E8549
:102AF000B250225445618280797122D60018AA878B
:102B0000A30FF4FC232604FEB707002093870725B4
:102B10002324F4FE8347F4FD1397070141838327A1
:102B200084FE83D7C7426364F700814731A88327B7
:102B300084FE03A707438347F4FD8A07BA979C43A3
:102B40002326F4FE8327C4FE3E85325445618280ED
:102B5000797106D622D40018AA87232CB4FCA30FBF
:102B6000F4FCA30704FEB70700209387072523245E
:102B7000F4FE8347F4FD139707014183832784FE06
:102B800083D7C7426364F700814735A0832784FE5B
:102B900003A707438347F4FD8A07BA979C43BE8582
:102BA000032584FDEF20C052AA8781E78547A3074C
:102BB000F4FE8347F4FE3E85B25022544561828084
:102BC000011106CE22CC0010B707002093870725FD
:102BD0002326F4FE8327C4FE83C707003E85EF004B
:102BE000A077AA8799E3854711A081473E85F240E7
:102BF000624405618280797106D622D40018232EA2
:102C0000A4FC232CB4FC8547A307F4FEB7070020DF
:102C1000938707252324F4FE832784FE03D7872E7A
:102C2000BD4763F4E700814749A0832784FE83D72B
:102C3000872E2313F4FE035764FEBA878A07BA97D8
:102C40008A079387072E032784FEBA97B107832547
:102C5000C4FD3E85EF20A059035764FE832684FE01
:102C6000BA878A07BA978A07B697032784FD23AEE7
:102C7000E72E035764FEBA878A07BA978A079387B5
:102C8000072E032784FEBA97B1073E8511338327A9
:102C900084FE83D7872E85071397070141838327F7
:102CA00084FE2394E72E8347F4FE3E85B2502254DF
:102CB00045618280797106D622D40018232EA4FCA7
:102CC000B7070020938707252324F4FEB7070008E1
:102CD000138587343539B70700081385C7340D3994
:102CE000232604FE0DA80327C4FEBA878A07BA97D5
:102CF0008A079387072E032784FEBA97B1073E857C
:102D00000139B70700081385873419318327C4FEBA
:102D100085072326F4FE832784FE83D7872E3E87EC
:102D20008327C4FEE3C1E7FCB70700081385C73655
:102D3000C5360100B2502254456182805D7186C65D
:102D4000A2C48008232EA4FAC1472324F4FE8327BB
:102D5000C4FB83D70700232AF4FC8327C4FBDC438E
:102D60002328F4FC8327C4FB83D7070099E7B70720
:102D700000081385C738693EA5A2032744FD85478F
:102D800063DEE700832704FD91079C4301468145EC
:102D90003E85EF30403EAA872324F4FE832704FDBE
:102DA0009C43014681453E85EF30E03CAA872322C3
:102DB000F4FE832744FE232CF4FCB7070008138598
:102DC000073AB936232604FE31A28327C4FE8D8B31
:102DD00089EB832744FEBE85B70700081385873A31
:102DE000053E832744FE9C43BE85B7070008138534
:102DF000473B393E0327C4FE9357F741F9833E977B
:102E00000D8BB307F7403E878D47631BF70AB70763
:102E100000081385C73BED3C232004FE41A893071F
:102E2000C4FC1146832584FD3E85EF20201D232E02
:102E300004FCB1A88327C4FD130704FFBA9703C796
:102E4000C7FDFD4763FBE7028327C4FD130704FFAB
:102E5000BA9703C7C7FD9307E00763E0E70283273C
:102E6000C4FD130704FFBA9783C7C7FDBE85B70724
:102E700000081385073C693C31A0B707000813859B
:102E8000473C79348327C4FD8507232EF4FC0327B0
:102E9000C4FD8D47E3D0E7FA832784FD9107232CF7
:102EA000F4FC832704FE85072320F4FE032704FE99
:102EB0008D47E3D6E7F6B70700081385873C893CC2
:102EC000832744FE91072322F4FE8327C4FE85074F
:102ED0002326F4FE0327C4FE832784FEE347F7EE90
:102EE000B640264461618280011106CE22CC0010DA
:102EF00013053060EFD07FD1232604FE89A8B707E1
:102F000000089386873D0327C4FEBA878607BA97D1
:102F10008A07B6978843B70700089386873D03273B
:102F2000C4FEBA878607BA978A07B697DC43BE867F
:102F30000D46C145EFD0FFA88327C4FE93F7F70FD6
:102F40003E850D208327C4FE85072326F4FE032734
:102F5000C4FE8947E3D5E7FA85473E85F2406244DF
:102F600005618280011106CE22CC0010AA87A3073A
:102F7000F4FE0347F4FE894763EAE7080347F4FEDB
:102F8000B70700089386873DBA878607BA978A07EE
:102F9000B69783C7970095CF0347F4FEB70700089D
:102FA0009386873DBA878607BA978A07B697904374
:102FB0000347F4FEB70700089386873DBA87860764
:102FC000BA978A07B697DC43BE853285EFD0BFBC7F
:102FD0003DA80347F4FEB70700089386873DBA87EC
:102FE0008607BA978A07B69790430347F4FEB70758
:102FF00000089386873DBA878607BA978A07B697EF
:10300000DC43BE853285EFD05FBB11A00100F240EA
:10301000624405618280011106CE22CC0010AA878D
:10302000A307F4FE0347F4FE894763EAE70A034770
:10303000F4FEB70700089386873DBA878607BA97DC
:103040008A07B69790430347F4FEB70700089386B4
:10305000873DBA878607BA978A07B697DC43BE854D
:103060003285EFD0DFB7AA8795EF0347F4FEB707A5
:1030700000089386873DBA878607BA978A07B6976E
:1030800090430347F4FEB70700089386873DBA874D
:103090008607BA978A07B697DC43BE853285EFD09C
:1030A0009FAF3DA80347F4FEB70700089386873D0E
:1030B000BA878607BA978A07B69790430347F4FE04
:1030C000B70700089386873DBA878607BA978A07AD
:1030D000B697DC43BE853285EFD03FAE11A001002C
:1030E000F240624405618280411122C60008854792
:1030F0003E853244410182805D7106D622D400189B
:10310000232EA4FC4CC010C454C418C85CC8232C83
:103110000401232E140193070402232CF4FC8327BB
:1031200084FD91172324F4FE832784FEBE860326A4
:10313000C4FD930500101385C1CAEF30400C23264F
:10314000A4FE03C781858327C4FE3E869385C1CA3A
:103150003A85592C0100B2502254616182800111DC
:1031600022CE0010232604FE35A81387C1DA832659
:10317000C4FE93074042B387F602BA972380070044
:103180001387C1DA8326C4FE93074042B387F60251
:10319000BA97396713070710D8C38327C4FE85077A
:1031A0002326F4FE8327C4FEE351F0FC85473E85C9
:1031B000724405618280797106D622D40018AA87EC
:1031C000232CB4FCA30FF4FCA30704FE8347F4FDF7
:1031D000639D07168346F4FD1387C1DA93074042C7
:1031E000B387F602BA9723A407008346F4FD13873A
:1031F000C1DA93074042B387F602BA97032784FDEA
:10320000D8C38346F4FD1387C1DA93074042B387DE
:10321000F602BA973747014013070780D8C703471C
:10322000F4FD93074042B307F702138707419387E2
:10323000C1DAB306F7000347F4FD93074042B30732
:10324000F702138707019387C1DABA971306004084
:10325000BE853685FD2EEFD0CFEE0D45EFD0CFEFFA
:103260000146854513058003EFD02FF1130520603B
:10327000EFD0BF991305E060EFD03F99930600208F
:103280000D46E145B717014013850780EFD06FF376
:10329000930600400D469145B717014013850780FE
:1032A000EFD02FF28346F4FD1387C1DA9307404233
:1032B000B387F602BA97DC472324F4FE032584FE85
:1032C000EFD09FD0832584FD032584FEEFD05FDD02
:1032D0008145032584FEEFD01FF38145032584FE3D
:1032E000EFD0DFF68145032584FEEFD0BFED8145A9
:1032F000032584FEEFE0CF8A8145032584FEEFE0BD
:103300000F8F9145032584FEEFD0FFFFA1450325D4
:1033100084FEEFD09FFA032584FEEFD09FF793053C
:103320005030032584FEEFE0EF998346F4FD1387C8
:10333000C1DA93074042B387F602BA970547238064
:10334000E7008547A307F4FE01008347F4FE3E85AE
:10335000B250225445618280797106D622D4001879
:10336000AA87A30FF4FC232604FE8347F4FD8DE314
:103370000347F4FD93074042B307F7021387074161
:103380009387C1DABA973E85F5212326A4FE010072
:103390008327C4FE3E85B2502254456182807971F4
:1033A00006D622D40018AA87A30FF4FCA30704FEB4
:1033B0008347F4FD9DE30347F4FD93074042B307C1
:1033C000F702138707419387C1DABA971307F4FE10
:1033D0000546BA853E85652E01008347F4FE3E858D
:1033E000B250225445618280797106D622D40018E9
:1033F000AA87232CB4FC232AC4FCA30FF4FC2326A5
:1034000004FE8347F4FDE9EB232204FE75A0834606
:10341000F4FD1387C1DA93074042B387F602BA97E7
:10342000D447832744FE032784FDBA9783C7070048
:10343000BE853685EFD0FFF1A30504FEEF00F04D09
:103440002320A4FEA9A08346F4FD1387C1DA9307C5
:103450004042B387F602BA97DC479D453E85EFD0E0
:10346000FFFD2A8785476314F7028346F4FD13871F
:10347000C1DA93074042B387F602BA97DC479D450D
:103480003E85EFD07FFF8547A305F4FE11A8EF002E
:10349000D0482A87832704FE1D8FA547E3F5E7FA66
:1034A0008347B4FE93C7170093F7F70F89EF83277D
:1034B00044FE85072322F4FE832744FE032744FDB0
:1034C000E3E7E7F411A001008347B4FE89C783272F
:1034D00044FD2326F4FE01008327C4FE3E85B2503E
:1034E0002254456182804D712326111223248112BA
:1034F000001A232CB4EC10C454C418C85CC8232C84
:103500000401232E1401AA87A30FF4EC93070402ED
:10351000232AF4EC832744EDA1172322F4EE03279A
:1035200044EE930784EEBA86032684ED93050010DB
:103530003E85EF20D04C2326A4FE8326C4FE13072D
:1035400084EE8347F4ED3686BA853E85713D2324AB
:10355000A4FE832784FE3E858320C11203248112AA
:1035600071618280011106CE22CC0010A30704FEF7
:103570008346F4FE1387C1DA93074042B387F6020D
:10358000BA97D847B7070500938557303A85EFD0EB
:10359000FFF72A8785476315F7048346F4FE1387F0
:1035A000C1DA93074042B387F602BA97DC473E85FB
:1035B000EFD0BFDCAA8793F7F70F2307F4FE03478A
:1035C000F4FE93074042B307F7021387074193873E
:1035D000C1DABA971307E4FE0546BA853E85D120C5
:1035E0000100F240624405618280411106C622C496
:1035F0000008EF00F022EFE02FD1EFF0FFAEEFF088
:10360000BF8EEFE06F9DA13EF167938507200145D6
:103610005D36B70700081385C73FEFF0FFADB7076A
:10362000000893854741B707000813850742EFF06C
:10363000BFACB707000893858743B7070008138519
:103640004744EFF07FAB85473E85B24022444101BD
:103650008280797122D60018232EA4FC232CB4FC7E
:10366000232AC4FC8547A307F4FE8327C4FD23A0B7
:1036700007008327C4FD23A207008327C4FD032777
:1036800044FD98C78327C4FD0547D8C78327C4FDD9
:10369000032784FD98CB8347F4FE3E853254456171
:1036A0008280397122DE80002326A4FC2324B4FC0E
:1036B0002322C4FC8547A307F4FE232404FE65A847
:1036C0008327C4FC9C43138717008327C4FC9C47B3
:1036D000B377F7022320F4FE8327C4FCDC430327DF
:1036E00004FE6302F7088327C4FC9C4BBDC78327F5
:1036F00084FCA5C78327C4FC984B8327C4FC944350
:103700008327C4FCDC47B387F602BA97232EF4FC68
:10371000232204FE25A0832744FE032784FC3E9732
:10372000832744FE8326C4FDB69703470700238002
:10373000E700832744FE85072322F4FE8327C4FC89
:10374000D847832744FEE3E8E7FC8327C4FCDC4733
:10375000032784FCBA972324F4FC8327C4FC0327A3
:1037600004FE98C321A0A30704FE21A8832784FE9A
:1037700085072324F4FE832784FE032744FCE3E12A
:10378000E7F48347F4FE3E857254216182807971AB
:1037900022D60018232EA4FC232CB4FC232AC4FC1C
:1037A0008547A307F4FE232404FE4DA88327C4FD08
:1037B0009C4BBDC7832784FDA5C78327C4FD984BB9
:1037C0008327C4FDD4438327C4FDDC47B387F602B7
:1037D000BA972320F4FE232204FE25A0832744FE6B
:1037E000032704FE3E97832744FE832684FDB69775
:1037F000034707002380E700832744FE8507232231
:10380000F4FE8327C4FDD847832744FEE3E8E7FCA2
:103810008327C4FDDC47032784FDBA97232CF4FCDF
:103820008327C4FDD8438327C4FD9C436300F7026C
:103830008327C4FDDC43138717008327C4FD9C47FF
:103840003377F7028327C4FDD8C321A0A30704FE62
:1038500021A8832784FE85072324F4FE832784FE82
:10386000032744FDE3E4E7F48347F4FE3E85325446
:1038700045618280797122D60018232EA4FC83270B
:10388000C4FD98438327C4FDDC431D8F8327C4FDFB
:103890009C47B377F7022326F4FE8327C4FE3E85B8
:1038A00032544561828000000000000000000000EA
:1038B0000000000000000000000000000000000008
:1038C0005D7106C012C216C41AC61EC82ACA2ECC02
:1038D00032CE36D03AD23ED442D646D872DA76DCF0
:1038E0007ADEFEC0F322103496C0F322003096C276
:1038F000F322407C96C4732520348A855D2D864250
:1039000073901234964273900230A6427390427CB8
:1039100082401242A2423243C2435245E2457246BD
:1039200082561257A2573258C258525EE25E725FF8
:10393000864F616173002030000000005D7106C099
:1039400012C216C41AC61EC82ACA2ECC32CE36D00F
:103950003AD23ED442D646D872DA76DC7ADEFEC05F
:1039600073D0E87E7350F97E73D0B97EF390D07E29
:1039700073700430B6427390427CA6427390123446
:1039800096427390223482401242A2423243C24392
:103990005245E245724682561257A2573258C258D3
:1039A000525EE25E725F864F616173002030397152
:1039B00006DE22DC80002326A4FCB70700089387DC
:1039C000074683A8070003A847008847CC47904BC9
:1039D000D44B984F232814FD232A04FD232CA4FC48
:1039E000232EB4FC2320C4FE2322D4FE2324E4FE91
:1039F00003D7C7012316E4FE83C7E7012307F4FEBC
:103A0000930704FD7946BE850945EF20607883273A
:103A1000C4FCBE8509451D2A0546B70700089385E5
:103A2000C7450945EF20C07601A0011122CE001044
:103A30002326A4FEB707002003A7071F8327C4FE81
:103A40003E9793870126636FF700B707002003A70F
:103A5000071F8327C4FE3E97B78700209387078000
:103A600063F4E700FD572DA0B707002003A7071F49
:103A70008327C4FE3E97B707002023A8E71EB70799
:103A8000002003A7071F8327C4FEB307F040BA979F
:103A90003E85724405618280797106D622D4001871
:103AA000232EA4FC232CB4FC232AC4FC832784FDEE
:103AB0002324F4FE232604FE1DA8032784FE832767
:103AC000C4FEBA9783C707003E853D28032784FEBE
:103AD0008327C4FEBA9703C70700A9476314F700FA
:103AE00035451D208327C4FE85072326F4FE0327C2
:103AF000C4FE832744FDE362F7FC832744FD3E8533
:103B0000B250225445618280011106CE22CC0010B1
:103B10002326A4FE8327C4FE93F7F70FBE85B7477D
:103B2000014013850780EFD0DF8201009D45B74734
:103B3000014013850780EFD07F90AA87E5DB8327BC
:103B4000C4FE3E85F240624405618280797106D6EA
:103B500022D40018232EA4FC232CB4FC0946B7075A
:103B60000008938507480325C4FDEF206062A14744
:103B7000A307F4FEA5A88347F4FEFD172307F4FE70
:103B80008347E4FE8A073D47B317F7003E87832744
:103B900084FD7D8F8347E4FE8A07B357F700A306B1
:103BA000F4FE0347D4FEA54763EBE7008347D4FE4A
:103BB0009387070393F7F70FE207E18709A8834785
:103BC000D4FE9387770393F7F70FE207E187230685
:103BD000F4FE9307C4FE0546BE850325C4FDEF2011
:103BE000205B8347F4FEFD17A307F4FE8347F4FE32
:103BF000D9F301000100B250225445618280411185
:103C000022C60008B70700D19C433E8532444101DB
:103C10008280411122C60008B70700D191079C435A
:103C20003E85324441018280397106DE22DC4ADA67
:103C30004ED852D656D45AD25ED062CE66CC8000D0
:103C4000C93F2326A4FC653F2324A4FCD9372A8737
:103C50008327C4FCE396E7FE8327C4FC3E8A814A9F
:103C6000931B0A00014B832784FC3E8C814C3369F3
:103C70008B01B3E99B014A87CE873A85BE85F25016
:103C800062545259C259325AA25A125B825B724C28
:103C9000E24C21618280797122D60018232EA4FC87
:103CA000B70700D223800700B70700D2AD072380F3
:103CB0000700B71700D22324F4FE8327C4FD920720
:103CC000032784FEBA972322F4FE832784FE23264B
:103CD000F4FE11A88327C4FE23A007008327C4FE97
:103CE000C1072326F4FE0327C4FE832744FEE363B3
:103CF000F7FE01000100325445618280011122CE9D
:103D000000102326A4FE8327C4FE13972700B717AD
:103D100000D28507BA973E8785472300F700010048
:103D2000724405618280011122CE00102326A4FE78
:103D3000AE87A305F4FE8327C4FE13972700B717A9
:103D400000D28D07BA973E878347B4FE2300F70061
:103D50000100724405618280011122CE00102326E9
:103D6000A4FE8327C4FE13972700B71700D28D0740
:103D7000BA9783C7070093F7F70F3E857244056132
:103D80008280011122CE0010AA87A307F4FEB70794
:103D900000D20347F4FE2380E7000100724405616E
:103DA0008280411122C60008B70700D283C70700EE
:103DB00093F7F70F3E85324441018280797106D630
:103DC00022D40018AA87A30FF4FC8347F4FD8607CA
:103DD000A307F4FEF937AA872307F4FE8347E4FE1E
:103DE000859B13F7F70F8347F4FEF98B93F7F70FD3
:103DF000D98FA306F4FE8347D4FE3E8559370100D0
:103E0000B250225445618280011106CE22CC0010AE
:103E1000493FAA87A307F4FE8347F4FE858393F7FF
:103E2000F70FBD8BA307F4FE8347F4FE3E85F240F7
:103E3000624405618280797106D622D40018232E4F
:103E4000A4FCAE87A30DF4FCC137AA87A307F4FE38
:103E50000347F4FE914763F5E7009147A307F4FE9B
:103E60000347B4FD8347F4FEA146B387F640B3177A
:103E7000F7002307F4FE0325C4FDF93DAA87A30636
:103E8000F4FE0347D4FE8347F4FEB317F700A306FE
:103E9000F4FE0347D4FE8347F4FEB357F740A3066E
:103EA000F4FE0347D4FE8347E4FED98F93F7F70F60
:103EB000BE850325C4FD853D0100B25022544561F5
:103EC0008280797106D622D40018232EA4FCAE87F6
:103ED000A30DF4FC153FAA87A307F4FE0347F4FEE5
:103EE0008D4763F7E7009147A307F4FE8147B9A820
:103EF0008347B4FD9207A30DF4FC0325C4FDA93D3F
:103F0000AA872307F4FE0347E4FE8347F4FEA14695
:103F1000B387F640B357F7402307F4FE0347E4FEA8
:103F20008347F4FEA146B387F640B317F700230793
:103F3000F4FE0347E4FE8347B4FDD98F93F7F70FF0
:103F4000BE850325C4FDC5338347B4FD3E85B2500D
:103F5000225445618280011122CE0010F327503097
:103F60002326F4FE8327C4FE2324F4FE832784FE45
:103F700093F707FC2324F4FE832784FE93E737009E
:103F80002324F4FE832784FE73905730010072448B
:103F900005618280411106C622C400081546B70794
:103FA0000008938547480545EF20801E0545EFF042
:103FB0001FA0011106CE22CC00102326A4FE23242C
:103FC000B4FE0327C4FE8567FD177D8F8567FD1747
:103FD0006313F700C1371546B70700089385C74834
:103FE0000545EF20E01A8327C4FE3E85EFF03F9C95
:103FF000411106C622C40008EFD00FDA1305700580
:104000005939913FEFC0EFA10100B2402244410174
:104010008280411122C600080100324441018280A1
:10402000411122C6000885473E8532444101828005
:104030005D7186C6A2C4CAC2CEC052DE56DC8008FC
:10404000232EA4FAD536232CA4FC232EB4FCEFF0A7
:10405000BFBD2328A4FC232AB4FC032704FD832727
:1040600084FD6319F700032744FD8327C4FD631310
:10407000F700F1BFEFF05FBB2A88AE88032504FD8F
:10408000832544FD3306A840B287B337F800B386D2
:10409000B840B387F640BE862324C4FC2326D4FC54
:1040A000032584FC8325C4FCEF00D0492A89AE890E
:1040B000B707002083A7871E3E85EF00D0432A87DD
:1040C000AE87B706000803A6864983A6C6493A8587
:1040D000BE85592A2A87AE873A8ABE8A0325C4FB41
:1040E000EF0070412A87AE873A86BE865285D68514
:1040F00095272A87AE873A86BE864A85CE85452D86
:10410000AA87E3C907F601000100B6402644164914
:104110008649725AE25A61618280797106D622D448
:104120004AD24ED00018EFF03FB02324A4FE23263D
:10413000B4FEEFF07FAF2320A4FE2322B4FE0327BA
:1041400004FE832784FE6319F700032744FE8327B8
:10415000C4FE6313F700F1BF032504FE832544FE6C
:10416000EF00503E2A89AE89B707002083A7871E3B
:104170003E85EF0050382A87AE87B706000803A6B1
:10418000864983A6C6493A85BE85F9282A87AE871F
:104190003A86BE864A85CE85C1282A87AE873A856B
:1041A000BE85EF00502FAA87232EF4FC8327C4FD81
:1041B0003E85B25022541259825945618280411184
:1041C00006C622C40008F167938507200145EFD099
:1041D0007FA20100B240224441018280797106D65B
:1041E00022D40018232404FE9307C4FD0146814510
:1041F0003E85EFD0AFF015372326A4FE393F2A873E
:104200008327C4FE1D8F9307301F63F8E700313703
:104210002326A4FE0145EFE01FE0EFD03FBF930748
:10422000C4FD930520033E85EFD0EFF1AA87F9D7AF
:10423000832784FE138717002324E4FEBE85B70777
:1042400000081385074AEFE03FEB4DBF411106C65A
:1042500022C40008EFF06FB99D37493781473E858A
:10426000B240224441018280797193D7450126D220
:104270004AD052CC5EC662C49394C50006D622D4FE
:104280004ECE56CA5AC8139757012A89B28B368C1C
:10429000B18013DAF50151C793FAF77F9307F07FE6
:1042A000638BFA0C9359D5018E04B3E49900B709D6
:1042B0008000B3E9340113143500938A1AC0014B0E
:1042C00093574C019314CC0013975701B18093F589
:1042D000F77F135CFC0179C39307F07F638BF510C4
:1042E0001395340093D7DB015D8DB7048000C98C32
:1042F000939F3B00138515C0014693172B00D18F68
:10430000FD173947B3468A01B385AA406365F710A4
:1043100017C7FFFF1307071A8A07BA979C43BA9774
:104320008287B3E9A400638209069DC82685EF0051
:10433000303B930755FF71476349F702F549130472
:1043400085FFB389F940B3948400B3593901B3E9C7
:104350009900331489009305D0C0B38AA54085B76E
:10436000EF00103813050502E9B7930485FDB31972
:1043700099000144CDB7B3E9A400638C09002A84F5
:10438000A689930AF07F0D4B25BF0144814A054B56
:1043900005BF0144930AF07F094B1DB7B3EF7401C9
:1043A00063820F069DC82685EF009033AA85938708
:1043B00055FF71476349F702F546938F85FF9D8E40
:1043C0003395F401B3D6DB00B3E4A600B39FFB0141
:1043D0001307D0C03305B74005B75E85EF005030F6
:1043E00093050502E9B7138585FDB394AB00814FB2
:1043F000C5B7B3EF7401638B0F00DE8F1305F07F39
:104400000D46E5BD814401450546C5BD8144130502
:10441000F07F0946DDB563E634016396992A63644B
:10442000F42B1396F901135714009317F40193D941
:1044300019003364E6001395840093D88F01B3E824
:10444000A800418133D8A902939E080193DE0E0192
:104450001357040113938F00B3F4A902C28F33865C
:104460000E039399040133673701637CC7004697B5
:10447000930FF8FF636717016375C700930FE8FF99
:104480004697118F335EA702420441803377A7021B
:1044900072863388CE034207418F637C07014697BB
:1044A0001306FEFF63671701637507011306EEFF2E
:1044B000469733040741C20F4168B3EFCF00130E94
:1044C000F8FF13D60F0133F7CF01135F0301337EDB
:1044D000C301B303EE02B304C6033307EF02B30212
:1044E000E6033306970013D70301329763739700EF
:1044F000C292135607011696C162FD123378570017
:104500004208B3F353001E986367C400FE84631E21
:10451000C40263FC07039A9733B7670046973A943F
:104520009384FFFF63E688006391880263EF67006E
:104530006366C400631B860063F907019A9733B76B
:10454000670046979384EFFF3A9433880741118CB4
:10455000B3B707011D8CFD5F6387880EB35FA402AC
:10456000135708013374A4027E86B387FE03420406
:10457000598C637CF40046941386FFFF6367140133
:104580006375F4001386EFFF46941D8C3357A40225
:104590004208135808013374A402BA87B38EEE029E
:1045A000420433648800637CD40146949307F7FF88
:1045B000636714016375D4019307E7FF46944206CD
:1045C0005D8E93170601C183135706013308EF026E
:1045D0003304D441330FFF02B38EC703330EC70336
:1045E00093D70E01729FFA9763F4C70141673A9817
:1045F00013D70701429741687D1833F5070142053B
:10460000B3FE0E0176956366E4006310E41AB28F80
:104610001DC94694930FF6FF636114036366E400BB
:104620006314E418637DA3009317130033B367008A
:104630009A98930FE6FF46943E836314E400630464
:10464000650093EF1F009387F53F635BF00A13F754
:104650007F0001CF13F7FF0011466308C7001386E0
:104660004F00B33FF601FE94B28F13977400635866
:104670000700B70700FFFD17FD8C93870540130760
:10468000E07F6342F70693DF3F001397D40133675F
:10469000F70113D53400D2073706F07F3205B25048
:1046A0002254F18F31815D8DFE06B367D50092549F
:1046B0000259F249624AD24A424BB24B224C3A85E5
:1046C000BE8545618280FD158147B5B3D286CE8413
:1046D000A28F5A868D47630BF60A8547630FF60A49
:1046E0008947E312F6F6014501479307F07F65B766
:1046F000E286CDB7B7040800814F81460D46D9BF89
:1047000005451D8D130780036349A7087D4763494D
:10471000A7049385E541B397B40033D7AF00B395B1
:10472000BF00D98FB335B000CD8F33D5A40013F7B8
:10473000770001CF13F7F70011466308C70013870E
:104740004700B337F7003E95BA87131785006349D2
:1047500007041317D5018D835D8F0D81814725BF18
:104760000557B307F74013060002B3D7F40001471B
:104770006306C5009385E5433397B400B36FF70133
:10478000B33FF001B3E7F701014555B7370508001E
:1047900001479307F07F8146FDBD014501477DBF7D
:1047A000014501478547C5BD7E86B28F59BD370794
:1047B00010007D1713D84501B378B700AA872A8364
:1047C0001378F87F13D5F501930EF07F93D546014A
:1047D000758F328E93F5F57FFD826318D801B3EEA5
:1047E000F80063840E06094582806396D501B36E96
:1047F000C700E39A0EFE631C0804B3E7F80093B702
:10480000170099E1598E0DCE81EB6314D50063D961
:1048100005010DC57D5582807D5591C63685828006
:104820006354B80065D98280E36517FF639CE80094
:10483000E3616EFEE368C3FF014582800545828027
:10484000E5FFC1BFE3E0E8FEC5BFE38205FBD5FDA0
:1048500081474DBF797193D7450122D426D24ECEE0
:1048600052CC56CA9394C50006D64AD05AC85EC6E2
:10487000139757012A84B289B68AB18013DAF501F9
:1048800041C713FBF77F9307F07F6305FB0C93573A
:10489000D5018E04DD8CB7078000DD8C131935003F
:1048A000130B1BC0814B93D74A011394CA00139773
:1048B0005701318013F5F77F93DAFA0155CF93074B
:1048C000F07F6301F51093D7D9010E045D8CB70713
:1048D00080005D8C130515C09397390001479396AE
:1048E0002B00D98E5A95FD16394833465A01930547
:1048F0001500636AD80E17C5FFFF130565BF8A064A
:10490000AA969442AA96828633E9A400630D09040C
:1049100085C82685F123130755FFF14763C6E702D3
:10492000F547130985FF998FB3942401B357F40019
:10493000DD8C33192401130BD0C0330BAB409DB772
:10494000452313050502C1BF930485FDB3149400EC
:104950000149D5B733E9A400630B09002A89130B79
:10496000F07F8D4B89B78144014B854B2DBF81442E
:10497000130BF07F894B05BFB3673401A1CF05C886
:104980002285B92B930655FFF14763C7D7027547B8
:10499000930785FF158F3314F40033D7E900598C42
:1049A000B397F9001307D0C03305A74005BF4E8564
:1049B000052B13050502F9B7130485FD339489000F
:1049C0008147CDB7B367340191CBCE871305F07F14
:1049D0000D4731B701440145054711B7014413059F
:1049E000F07F0947EDBD416F1307FFFF93560901A3
:1049F00013D307013379E900F98FB3082303330890
:104A0000F902B38FF602B38EF80193580801F698B5
:104A1000338E660263F3F8017A9E93D20801B3F8ED
:104A2000E8003378E800135F0401C208798CC2986B
:104A3000338786023308890233092F03B30EE90056
:104A4000135908017699B386E6036374E900416758
:104A5000BA96935E0901B69EC166938FF6FF3379CD
:104A6000F9013378F80113D704014209B3F4F401D2
:104A7000B38397024299CA9233089302B307F702AD
:104A8000B30FE3023303F80013D803011A986373DA
:104A9000F800B69F93570801C166BE9F9387F6FF43
:104AA0003378F800B3F7F300B303940242083E985A
:104AB00033048702B3049F023303EF02A29413D797
:104AC0000301BA9463F384003693C167FD17B3F60C
:104AD000F400C206B3F7F300169EBE9633392E01DA
:104AE000F69633872601429E33380E01330FF701C5
:104AF000B3020F01B3B6D60133372701558F33B850
:104B00000201C180B33FFF01269733E80F019317DD
:104B10009E0042971A97B3E717012607B337F000B4
:104B2000135E7E0113D47201B3E7C701A602931688
:104B30007700598CB3E7570063DA060A13D71700DA
:104B4000858BD98F1317F401D98F05809386F53F94
:104B50006350D00A13F7770001CF13F7F700114520
:104B60006308A70013874700B337F7003E94BA875E
:104B70001317740063580700370700FF7D17798CFF
:104B8000938605401307E07F634ED70E13D7370097
:104B90009317D401D98F0D80139746013204B706BD
:104BA000F07F758F3180598C7E06B2503367C40018
:104BB000225492540259F249624AD24A424BB24BB1
:104BC0003E85BA854561828052862684CA875E8783
:104BD00089466309D70A8D46630FD7088546E317D0
:104BE000D7F6014481479DA05686DDB7AA85B9BF97
:104BF0000545158D13078003E345A7FE7D476349EF
:104C0000A7049385E5413317B400B3D6A700B39743
:104C1000B700558FB337F000D98F3354A40013F782
:104C2000770001CF13F7F70091466308D700138789
:104C30004700B337F7003E94BA87131784006348E0
:104C400007041317D4018D83D98F0D808146A9B72E
:104C50000557158F130800023357E4008146630699
:104C600005019385E543B316B400D58FB337F00043
:104C7000D98F01446DB73704080081479306F07F50
:104C8000014619BF014481479306F07F31B70144C3
:104C90008147854611B713D74501370810009307A0
:104CA000F8FF1377F77F1306E03FED8FAA86FD81AB
:104CB0006351E6041306F0410D8E1385F5FF635B27
:104CC000C702014585E913053043198D7D46B3E7D9
:104CD0000701634AA6001307D7BEB397E70033D591
:104CE000A6005D8D828013053041198D33D5A70054
:104CF000828001458280411122C406C62A8421C1D6
:104D0000C5221307E041A947098F63C4A702AD4735
:104D1000898F5505B357F4003314A400B24022859F
:104D2000B20722445207B183B366F700B68541014A
:104D30008280930755FFB317F4000144C5B781473C
:104D40000147E9BF011106CE22CC26CA4AC84EC689
:104D500052C4B367B500638707122A842E89AE84D4
:104D6000ADC12E85B52AAA89130AE043330A3A4118
:104D70009307304363C147072D47A2876353370327
:104D80001307A002634337059304B002138759FF4A
:104D9000B3843441B3549400B315E900CD8CB317F8
:104DA000E400F24062449395C400520AB181336733
:104DB000BA00D2444249B249224A3E85BA850561C9
:104DC0008280392A9309050245B7938559FDB314AA
:104DD000B4008147F9B79307604363D34703138651
:104DE00089032285CA85C1284D8D2146B334A00090
:104DF000CA85228533063641512833E4A4002E8922
:104E00002147A287CA85635437031307700263459D
:104E10003707138789FFB315E900130980023309A7
:104E2000394133592401B365B900B317E40037079A
:104E300080FF7D17F98D13F7770001CF13F7F70087
:104E400091466308D70013874700B337F700BE9534
:104E5000BA8713978500635A0700370780FF7D17CD
:104E6000130AF043F98D330A3A418D831395D50126
:104E7000C98F93D4350035B7938589FDB315B40038
:104E8000814775B781448147014A21BF01CE93070D
:104E90000002918F6349F000130506FE014733D5E8
:104EA000A500BA85828033D7C5003355C500B395B8
:104EB000F5004D8DFDB701CE93070002918F634938
:104EC000F000930506FE0147B315B5003A858280D0
:104ED0003317C500B395C5003355F500C98DFDB72F
:104EE000C1676376F5029307F00FB3B7A7008E078B
:104EF000130700021D8F3355F50097B7FFFF938707
:104F0000E7623E95034505003305A74082803707D9
:104F10000001C147E36EE5FCE147D9BFAA858146A0
:104F2000014601456F104031411122C406C6971752
:104F30000000938727382A8481C78145EF104037C6
:104F4000174500000325C5081C5591C3829722858B
:104F5000EFE0FFA54111974700009387A70722C400
:104F600017440000130404071D8C26C206C60984DA
:104F7000BE8419E42244B240924441016FF06F892B
:104F80007D1493172400A6979C438297DDB74111A7
:104F9000974700009387070422C4174400001304B6
:104FA00064031D8C26C24AC006C6098481443E891A
:104FB00063988402EFF0CF839747000093878701BF
:104FC00017440000130404011D8C098481443E89A8
:104FD000639F8400B240224492440249410182808E
:104FE00093972400CA979C4385048297D1B79397DF
:104FF0002400CA979C4385048297D9BFB3C7A500F4
:105000008D8BB306C50081E78D4763EEC700AA8785
:105010006378D50A03C7050085078505A38FE7FEDA
:10502000E3EAD7FE828013773500AA8711CB03C746
:10503000050085078505A38FE7FE13F73700FDB749
:1050400013F7C6FF130607FE63FBC70483A305001F
:1050500083A2450083AF850003AFC50083AE050181
:1050600003AE450103A3850183A8C50123A07700F2
:1050700023A2570003A8050223A4F70123A6E701F2
:1050800023A8D70123AAC70123AC670023AE1701C9
:10509000938545029387470223AE07FF75B72E8895
:1050A0003E866360E6021388D7FF01466366070108
:1050B0000D071D8F1376C7FFB297B295E3ECD7F4B7
:1050C00082808328080011061108232E16FFD1BF05
:1050D0003367B500FD530D8B79E7B7877F7F9387E3
:1050E000F7F710419441B372F6003363F600BE92B5
:1050F000B3E262006397720C6318D6065041D44144
:10510000B372F6003363F600BE92B3E262006398B6
:10511000720A631BD60410459445B372F6003363DC
:10512000F600BE92B3E262006391720A631ED60279
:105130005045D445B372F6003363F600BE92B3E235
:105140006200639A72086311D60210499449B372DF
:10515000F6003363F600BE92B3E262006393720816
:105160005105D105E30FD6F61317060193970601F3
:10517000631CF7001357060193D706013305F74068
:105180009375F50F91E982804183C1833305F74020
:105190009375F50F91E182801377F70F93F7F70F6F
:1051A0003305F74082800346050083C605000505E8
:1051B00085056313D60065FA3305D6408280110554
:1051C0009105E312D6FE014582802105A105E31C6D
:1051D000D6FC014582803105B105E316D6FC0145B8
:1051E00082804105C105E310D6FC01458280AA8773
:1051F00003C7050085078505A38FE7FE75FB828041
:10520000AA8703C7070085076DFF3385A7407D1573
:10521000828041112A8722C42E843A85A28526C223
:1052200006C6B284EF2020062A87AE878DC451803F
:105230001374F47F9306B00633848640635D800068
:105240005204B707F03F0147A2973A86BE86EFF0B7
:105250006FE02A87AE87B240224492443A85BE85E9
:105260004101828035714AC92A89368532D436C6D1
:1052700006CF22CD26CB4EC752C55AC156C32E8B60
:10528000DEDEE2DCE6DAEAD8EED682C8EF10900580
:105290002A8A084181440144A5373248AA89DAC6DE
:1052A0009306B002354693050002214536478347F1
:1052B00007006383D70C63E0F6086369F606636949
:1052C000F506D1C702C6B64A93070003014D03C7CE
:1052D0000A006317F71283C71A00930680051307A5
:1052E000000393F7F70D6393D710B2479808D408DB
:1052F00017B6FFFF1306C635EC004A85EF10C01540
:10530000937975002A8A6388090099476398F9069A
:10531000850AD6C602C6A25781C7B64722571CC304
:10532000B24795CBB70500802D8C35A0E39CB7F82C
:105330000507BAC6A5BF9306D002E395D7F88547FF
:105340003EC693071700BEC683471700ADFFA2579E
:10535000DAC602C6F9F3FA40A2856A444A49BA4954
:105360002A4A9A4A0A4BF65B665CD65C465DB65D95
:105370002685DA440D61828002C6E1B7464611CA2D
:1053800093055003A808EF202014C6454A85EF1066
:10539000F002FD19914763EE370117B7FFFF1307BE
:1053A000E7298A09BA9983A70900BA978287E64450
:1053B0007644137A8A00E3000AF6B70700805D8C12
:1053C00099BF7644B705F0FFFD156D8CD645E644D0
:1053D00093853543D2054D8CE9BF3704F07FD1BFAB
:1053E000370400801344F4FFFD54E1B7B6479386B9
:1053F0001700B6C683C71700E38AE7FE89DF054DAD
:10540000B647814C814A3EC8014C2546A145A94674
:105410003645834B050013870BFD9377F70F637EAB
:10542000F60483250A004E86EF20901435C5DE87EA
:10543000E28D0147014A0145930650066387D70074
:10544000930650048149639FD71663970D00B36795
:10545000A701E38E07EE814D364B9306B00293070A
:105460001B00BEC683471B006387D70E9306D0027E
:1054700081486398D70E8548C5A063CA8501B38A61
:10548000DA02BA9A93071500050CBEC651B73388E5
:10549000DC02B30C0701FDB7B6470147338537017E
:1054A000AAC683470500630E0C06014AE28D938667
:1054B00007FD25466377D6020545BDBFB6470507FC
:1054C00013861700B2C683C71700E389D7FE9386F9
:1054D000F7FC2146E365D620B6463A8A814D36C8A8
:1054E0000147938707FD9306170085C7369A330651
:1054F000B701EE86A1484143A9456317D602850D41
:10550000BA9D2147634FC7022947B38AEA02814601
:10551000BE9AB64713871700BAC683C717003687E7
:1055200079B79306000355B71385160063C6D800F4
:10553000B38ABA02AA86D1B7E34EA3FEB38CBC02EB
:10554000D5BF41478146E346B7FD29473388EC0282
:10555000B38C07017DBF814893072B00BEC68347EC
:105560002B00938607FD25466362D60E9306000343
:105570006381D70C9386F7FC214681496364D60486
:105580003643938607FD254EA94EB647138617006E
:10559000B2C683C71700938507FD93F5F50F6371B6
:1055A000BE0A9569330666409389F9E12143CE85A9
:1055B0006346C300B68963D3D500AE89638408000F
:1055C000B309304163980D0C3367ED00E31507D440
:1055D000E31F05D6130790066380E708634BF706C1
:1055E00013079004638AE7061307E004E391E7D604
:1055F00097B5FFFF93854504E800EF104034E308BA
:1056000005D4B64703C70700930780026311F70864
:10561000B00897B5FFFF9385E504E800EF1020354B
:1056200095476316F506F6453704F07FE6444D8C42
:10563000DDB1B64713861700B2C683C717000DBF8A
:10564000B386D603B697938607FD81B7DAC681493C
:1056500095BF1307E00659BF97B5FFFF938505FD7A
:10566000E800EF10C02DE30405CEB64797B5FFFF65
:10567000938505FCE800FD17BEC6EF10402C01E540
:10568000B6478507BEC63704F07F814469B1370449
:10569000F8FFE5BFB38B494163130C006E8CC14723
:1056A0006E8D63D3B701414D5685EFF0CFE4A5472A
:1056B000AA842E8463DCB70393077DFF139737001A
:1056C00097B7FFFF93878701BA979043D443EFF0D2
:1056D0006F98AA8466852E84EFF0EFE12A86AE8665
:1056E0002685A285EF20F010AA842E84BD4763CDC5
:1056F000B709E3820BC263547007594763437703CA
:105700008E0B97B7FFFF938767FDBE9B03A50B002A
:1057100083A54B002686A286EFF0CF93AA842E8421
:10572000DDBE130750023307B741634F7705B38DD2
:10573000B74117B9FFFF130969FA93973D00CA975C
:105740008843CC43B38DBB412686A2868E0DEFF0F5
:105750006F90CA9D03A60D0083A64D0075BFA95783
:1057600063C4FB02B3093A41139A390097B9FFFFAA
:105770009389C9F6D29903A6090083A64900268514
:10578000A285EFE07FAE59BF338DAD415E9D63577B
:10579000A0119377FD0099CF17B7FFFF130707F408
:1057A0008E07BA978843CC432686A286EFF08F8A6D
:1057B000AA842E84137D0DFF63070D0A93074013FF
:1057C00063D4A705814A8149014C014A930720020D
:1057D0002320F9003704F07F8144E30E0CB2C64564
:1057E0004A85EF10A03DD2854A85EF10203DCE8539
:1057F0004A85EF10A03CE2854A85EF10203CD68513
:105800004A85EF10A03B01BE135D4D40A687A285DF
:105810000147014B854C17BEFFFF130EAEE963C66F
:10582000AC0519C3BE842E8417B7FFFF130787E8A2
:1058300093173B00BA978843CC433707B0FC2297B5
:105840002686BA86EFF00F813704F07FB377B40075
:105850003707A07CAA84E367F7F63707907C637B61
:10586000F7027D14FD54014BF5A893761D0099CEE7
:1058700013173B007297104354433E85EFE09FFDA2
:10588000AA87054717BEFFFF130ECEE2050B135D77
:105890001D4071B7370450032E94F1B7E3050DFC9A
:1058A000330DA0419377FD0099CF17B7FFFF130782
:1058B000E7E28E07BA979043D4432685A285EFE0AE
:1058C000BF9AAA842E84135D4D40E30E0DF8FD4768
:1058D00063DDA701814A8149014C014A93072002F7
:1058E000814401442320F900CDBD137B0D016304E5
:1058F0000B00130BA006A687A28597BCFFFF938C15
:10590000ECD7814613761D0011CA83A64C0003A66E
:105910000C003E85EFE01FF4AA878546135D1D400D
:10592000A10CE3110DFE99C2BE842E8463050B0207
:105930009357440113F7F77F9307B006998F635C81
:10594000F0007D476353F7221307400381446358F7
:10595000F72037047003014681462685A285EF2093
:1059600050482DD9C24562865687EE864A85EF108B
:1059700020332A8CE30805E493D7FB41B3093A416D
:10598000B3F7F9003ED05ECC63D30B0002CC930793
:10599000CC003ED8B7071000FD17814A81493ED69A
:1059A00083254C004A85EF1040182A8AE30005E25F
:1059B00003260C01C255310509060A06EFF00FE473
:1059C000B808D4082286A6854A8526C822CAEF10C0
:1059D000701BAAC8E30C05DE85454A85EF1080419F
:1059E000AA89E30505DED64763C607180257E24CCD
:1059F000B38DE7006647B387674193066003BA97A4
:105A0000998EFD17130720C063D6E7181D8F7D46BA
:105A1000998E6346E6168547B397E7003ED202CEDD
:105A2000B69C338DDD00DA9CEE876353BD01EA87B7
:105A300063D3FC00E6876358F000330DFD40B38C60
:105A4000FC40B38DFD4082576358F002CE853E8600
:105A50004A85EF102052AA89E30A05D64646AA8550
:105A60004A85EF10E03A2ADAE30205D6C6454A85B0
:105A7000EF10C014D257BEC86340A013635A700120
:105A80006246D2854A85EF10E04E2A8AE30005D4AB
:105A9000635A9001D28566864A85EF1080592A8A1A
:105AA000E30605D2635AB001CE856E864A85EF10B3
:105AB0004058AA89E30C05D0C64552864A85EF10A6
:105AC0006069AA8AE30405D0832CC500CE8523260D
:105AD0000500EF108064635A050CB3EC9C006392E0
:105AE0000C129317C400639E0710B707F07FE18F75
